{
  "_format": "hh-sol-artifact-1",
  "contractName": "Exmateria",
  "sourceName": "contracts/Rules.sol",
  "abi": [
    {
      "inputs": [],
      "stateMutability": "nonpayable",
      "type": "constructor"
    },
    {
      "inputs": [],
      "name": "ApprovalCallerNotOwnerNorApproved",
      "type": "error"
    },
    {
      "inputs": [],
      "name": "ApprovalQueryForNonexistentToken",
      "type": "error"
    },
    {
      "inputs": [],
      "name": "BalanceQueryForZeroAddress",
      "type": "error"
    },
    {
      "inputs": [],
      "name": "MintERC2309QuantityExceedsLimit",
      "type": "error"
    },
    {
      "inputs": [],
      "name": "MintToZeroAddress",
      "type": "error"
    },
    {
      "inputs": [],
      "name": "MintZeroQuantity",
      "type": "error"
    },
    {
      "inputs": [],
      "name": "NotCompatibleWithSpotMints",
      "type": "error"
    },
    {
      "inputs": [
        {
          "internalType": "address",
          "name": "owner",
          "type": "address"
        }
      ],
      "name": "OwnableInvalidOwner",
      "type": "error"
    },
    {
      "inputs": [
        {
          "internalType": "address",
          "name": "account",
          "type": "address"
        }
      ],
      "name": "OwnableUnauthorizedAccount",
      "type": "error"
    },
    {
      "inputs": [],
      "name": "OwnerQueryForNonexistentToken",
      "type": "error"
    },
    {
      "inputs": [],
      "name": "OwnershipNotInitializedForExtraData",
      "type": "error"
    },
    {
      "inputs": [],
      "name": "SequentialMintExceedsLimit",
      "type": "error"
    },
    {
      "inputs": [],
      "name": "SequentialUpToTooSmall",
      "type": "error"
    },
    {
      "inputs": [],
      "name": "SpotMintTokenIdTooSmall",
      "type": "error"
    },
    {
      "inputs": [],
      "name": "TokenAlreadyExists",
      "type": "error"
    },
    {
      "inputs": [],
      "name": "TransferCallerNotOwnerNorApproved",
      "type": "error"
    },
    {
      "inputs": [],
      "name": "TransferFromIncorrectOwner",
      "type": "error"
    },
    {
      "inputs": [],
      "name": "TransferToNonERC721ReceiverImplementer",
      "type": "error"
    },
    {
      "inputs": [],
      "name": "TransferToZeroAddress",
      "type": "error"
    },
    {
      "inputs": [],
      "name": "URIQueryForNonexistentToken",
      "type": "error"
    },
    {
      "anonymous": false,
      "inputs": [
        {
          "indexed": true,
          "internalType": "address",
          "name": "owner",
          "type": "address"
        },
        {
          "indexed": true,
          "internalType": "address",
          "name": "approved",
          "type": "address"
        },
        {
          "indexed": true,
          "internalType": "uint256",
          "name": "tokenId",
          "type": "uint256"
        }
      ],
      "name": "Approval",
      "type": "event"
    },
    {
      "anonymous": false,
      "inputs": [
        {
          "indexed": true,
          "internalType": "address",
          "name": "owner",
          "type": "address"
        },
        {
          "indexed": true,
          "internalType": "address",
          "name": "operator",
          "type": "address"
        },
        {
          "indexed": false,
          "internalType": "bool",
          "name": "approved",
          "type": "bool"
        }
      ],
      "name": "ApprovalForAll",
      "type": "event"
    },
    {
      "anonymous": false,
      "inputs": [
        {
          "indexed": true,
          "internalType": "uint256",
          "name": "fromTokenId",
          "type": "uint256"
        },
        {
          "indexed": false,
          "internalType": "uint256",
          "name": "toTokenId",
          "type": "uint256"
        },
        {
          "indexed": true,
          "internalType": "address",
          "name": "from",
          "type": "address"
        },
        {
          "indexed": true,
          "internalType": "address",
          "name": "to",
          "type": "address"
        }
      ],
      "name": "ConsecutiveTransfer",
      "type": "event"
    },
    {
      "anonymous": false,
      "inputs": [
        {
          "indexed": true,
          "internalType": "address",
          "name": "previousOwner",
          "type": "address"
        },
        {
          "indexed": true,
          "internalType": "address",
          "name": "newOwner",
          "type": "address"
        }
      ],
      "name": "OwnershipTransferred",
      "type": "event"
    },
    {
      "anonymous": false,
      "inputs": [
        {
          "indexed": true,
          "internalType": "address",
          "name": "from",
          "type": "address"
        },
        {
          "indexed": true,
          "internalType": "address",
          "name": "to",
          "type": "address"
        },
        {
          "indexed": true,
          "internalType": "uint256",
          "name": "tokenId",
          "type": "uint256"
        }
      ],
      "name": "Transfer",
      "type": "event"
    },
    {
      "inputs": [
        {
          "internalType": "address",
          "name": "to",
          "type": "address"
        },
        {
          "internalType": "uint256",
          "name": "tokenId",
          "type": "uint256"
        }
      ],
      "name": "approve",
      "outputs": [],
      "stateMutability": "payable",
      "type": "function"
    },
    {
      "inputs": [
        {
          "internalType": "address",
          "name": "owner",
          "type": "address"
        }
      ],
      "name": "balanceOf",
      "outputs": [
        {
          "internalType": "uint256",
          "name": "",
          "type": "uint256"
        }
      ],
      "stateMutability": "view",
      "type": "function"
    },
    {
      "inputs": [],
      "name": "baseURI",
      "outputs": [
        {
          "internalType": "string",
          "name": "",
          "type": "string"
        }
      ],
      "stateMutability": "view",
      "type": "function"
    },
    {
      "inputs": [
        {
          "internalType": "uint256",
          "name": "tokenId",
          "type": "uint256"
        }
      ],
      "name": "getApproved",
      "outputs": [
        {
          "internalType": "address",
          "name": "",
          "type": "address"
        }
      ],
      "stateMutability": "view",
      "type": "function"
    },
    {
      "inputs": [
        {
          "internalType": "address",
          "name": "owner",
          "type": "address"
        },
        {
          "internalType": "address",
          "name": "operator",
          "type": "address"
        }
      ],
      "name": "isApprovedForAll",
      "outputs": [
        {
          "internalType": "bool",
          "name": "",
          "type": "bool"
        }
      ],
      "stateMutability": "view",
      "type": "function"
    },
    {
      "inputs": [
        {
          "internalType": "uint256",
          "name": "_quantity",
          "type": "uint256"
        }
      ],
      "name": "mint",
      "outputs": [],
      "stateMutability": "payable",
      "type": "function"
    },
    {
      "inputs": [],
      "name": "name",
      "outputs": [
        {
          "internalType": "string",
          "name": "",
          "type": "string"
        }
      ],
      "stateMutability": "view",
      "type": "function"
    },
    {
      "inputs": [],
      "name": "owner",
      "outputs": [
        {
          "internalType": "address",
          "name": "",
          "type": "address"
        }
      ],
      "stateMutability": "view",
      "type": "function"
    },
    {
      "inputs": [
        {
          "internalType": "uint256",
          "name": "tokenId",
          "type": "uint256"
        }
      ],
      "name": "ownerOf",
      "outputs": [
        {
          "internalType": "address",
          "name": "",
          "type": "address"
        }
      ],
      "stateMutability": "view",
      "type": "function"
    },
    {
      "inputs": [],
      "name": "renounceOwnership",
      "outputs": [],
      "stateMutability": "nonpayable",
      "type": "function"
    },
    {
      "inputs": [
        {
          "internalType": "address",
          "name": "from",
          "type": "address"
        },
        {
          "internalType": "address",
          "name": "to",
          "type": "address"
        },
        {
          "internalType": "uint256",
          "name": "tokenId",
          "type": "uint256"
        }
      ],
      "name": "safeTransferFrom",
      "outputs": [],
      "stateMutability": "payable",
      "type": "function"
    },
    {
      "inputs": [
        {
          "internalType": "address",
          "name": "from",
          "type": "address"
        },
        {
          "internalType": "address",
          "name": "to",
          "type": "address"
        },
        {
          "internalType": "uint256",
          "name": "tokenId",
          "type": "uint256"
        },
        {
          "internalType": "bytes",
          "name": "_data",
          "type": "bytes"
        }
      ],
      "name": "safeTransferFrom",
      "outputs": [],
      "stateMutability": "payable",
      "type": "function"
    },
    {
      "inputs": [
        {
          "internalType": "address",
          "name": "operator",
          "type": "address"
        },
        {
          "internalType": "bool",
          "name": "approved",
          "type": "bool"
        }
      ],
      "name": "setApprovalForAll",
      "outputs": [],
      "stateMutability": "nonpayable",
      "type": "function"
    },
    {
      "inputs": [
        {
          "internalType": "string",
          "name": "_baseURI",
          "type": "string"
        }
      ],
      "name": "setBaseUri",
      "outputs": [],
      "stateMutability": "nonpayable",
      "type": "function"
    },
    {
      "inputs": [
        {
          "internalType": "bytes4",
          "name": "interfaceId",
          "type": "bytes4"
        }
      ],
      "name": "supportsInterface",
      "outputs": [
        {
          "internalType": "bool",
          "name": "",
          "type": "bool"
        }
      ],
      "stateMutability": "view",
      "type": "function"
    },
    {
      "inputs": [],
      "name": "symbol",
      "outputs": [
        {
          "internalType": "string",
          "name": "",
          "type": "string"
        }
      ],
      "stateMutability": "view",
      "type": "function"
    },
    {
      "inputs": [
        {
          "internalType": "uint256",
          "name": "_tokenID",
          "type": "uint256"
        }
      ],
      "name": "tokenURI",
      "outputs": [
        {
          "internalType": "string",
          "name": "",
          "type": "string"
        }
      ],
      "stateMutability": "view",
      "type": "function"
    },
    {
      "inputs": [],
      "name": "totalSupply",
      "outputs": [
        {
          "internalType": "uint256",
          "name": "result",
          "type": "uint256"
        }
      ],
      "stateMutability": "view",
      "type": "function"
    },
    {
      "inputs": [
        {
          "internalType": "address",
          "name": "from",
          "type": "address"
        },
        {
          "internalType": "address",
          "name": "to",
          "type": "address"
        },
        {
          "internalType": "uint256",
          "name": "tokenId",
          "type": "uint256"
        }
      ],
      "name": "transferFrom",
      "outputs": [],
      "stateMutability": "payable",
      "type": "function"
    },
    {
      "inputs": [
        {
          "internalType": "address",
          "name": "newOwner",
          "type": "address"
        }
      ],
      "name": "transferOwnership",
      "outputs": [],
      "stateMutability": "nonpayable",
      "type": "function"
    },
    {
      "inputs": [],
      "name": "withdraw",
      "outputs": [],
      "stateMutability": "payable",
      "type": "function"
    }
  ],
  "bytecode": "0x60806040523480156200001157600080fd5b50336040518060400160405280601581526020017f45782d6d61746572696120436f6c6c656374696f6e00000000000000000000008152506040518060400160405280600381526020017f45584d00000000000000000000000000000000000000000000000000000000008152508160029081620000909190620004ff565b508060039081620000a29190620004ff565b50620000b36200018860201b60201c565b600081905550620000c96200018860201b60201c565b620000d96200018d60201b60201c565b1015620000f957620000f863fed8210f60e01b620001b560201b60201c565b5b5050600073ffffffffffffffffffffffffffffffffffffffff168173ffffffffffffffffffffffffffffffffffffffff1603620001705760006040517f1e4fbdf70000000000000000000000000000000000000000000000000000000081526004016200016791906200062b565b60405180910390fd5b6200018181620001bf60201b60201c565b5062000648565b600090565b60007fffffffffffffffffffffffffffffffffffffffffffffffffffffffffffffffff905090565b8060005260046000fd5b6000600960009054906101000a900473ffffffffffffffffffffffffffffffffffffffff16905081600960006101000a81548173ffffffffffffffffffffffffffffffffffffffff021916908373ffffffffffffffffffffffffffffffffffffffff1602179055508173ffffffffffffffffffffffffffffffffffffffff168173ffffffffffffffffffffffffffffffffffffffff167f8be0079c531659141344cd1fd0a4f28419497f9722a3daafe3b4186f6b6457e060405160405180910390a35050565b600081519050919050565b7f4e487b7100000000000000000000000000000000000000000000000000000000600052604160045260246000fd5b7f4e487b7100000000000000000000000000000000000000000000000000000000600052602260045260246000fd5b600060028204905060018216806200030757607f821691505b6020821081036200031d576200031c620002bf565b5b50919050565b60008190508160005260206000209050919050565b60006020601f8301049050919050565b600082821b905092915050565b600060088302620003877fffffffffffffffffffffffffffffffffffffffffffffffffffffffffffffffff8262000348565b62000393868362000348565b95508019841693508086168417925050509392505050565b6000819050919050565b6000819050919050565b6000620003e0620003da620003d484620003ab565b620003b5565b620003ab565b9050919050565b6000819050919050565b620003fc83620003bf565b620004146200040b82620003e7565b84845462000355565b825550505050565b600090565b6200042b6200041c565b62000438818484620003f1565b505050565b5b8181101562000460576200045460008262000421565b6001810190506200043e565b5050565b601f821115620004af57620004798162000323565b620004848462000338565b8101602085101562000494578190505b620004ac620004a38562000338565b8301826200043d565b50505b505050565b600082821c905092915050565b6000620004d460001984600802620004b4565b1980831691505092915050565b6000620004ef8383620004c1565b9150826002028217905092915050565b6200050a8262000285565b67ffffffffffffffff81111562000526576200052562000290565b5b620005328254620002ee565b6200053f82828562000464565b600060209050601f83116001811462000577576000841562000562578287015190505b6200056e8582620004e1565b865550620005de565b601f198416620005878662000323565b60005b82811015620005b1578489015182556001820191506020850194506020810190506200058a565b86831015620005d15784890151620005cd601f891682620004c1565b8355505b6001600288020188555050505b505050505050565b600073ffffffffffffffffffffffffffffffffffffffff82169050919050565b60006200061382620005e6565b9050919050565b620006258162000606565b82525050565b60006020820190506200064260008301846200061a565b92915050565b61292780620006586000396000f3fe60806040526004361061012a5760003560e01c806370a08231116100ab578063a0bcfc7f1161006f578063a0bcfc7f1461038b578063a22cb465146103b4578063b88d4fde146103dd578063c87b56dd146103f9578063e985e9c514610436578063f2fde38b146104735761012a565b806370a08231146102c5578063715018a6146103025780638da5cb5b1461031957806395d89b4114610344578063a0712d681461036f5761012a565b806323b872dd116100f257806323b872dd1461021b5780633ccfd60b1461023757806342842e0e146102415780636352211e1461025d5780636c0360eb1461029a5761012a565b806301ffc9a71461012f57806306fdde031461016c578063081812fc14610197578063095ea7b3146101d457806318160ddd146101f0575b600080fd5b34801561013b57600080fd5b5061015660048036038101906101519190611b37565b61049c565b6040516101639190611b7f565b60405180910390f35b34801561017857600080fd5b5061018161052e565b60405161018e9190611c2a565b60405180910390f35b3480156101a357600080fd5b506101be60048036038101906101b99190611c82565b6105c0565b6040516101cb9190611cf0565b60405180910390f35b6101ee60048036038101906101e99190611d37565b61061e565b005b3480156101fc57600080fd5b5061020561062e565b6040516102129190611d86565b60405180910390f35b61023560048036038101906102309190611da1565b61067b565b005b61023f61093c565b005b61025b60048036038101906102569190611da1565b6109c4565b005b34801561026957600080fd5b50610284600480360381019061027f9190611c82565b6109e4565b6040516102919190611cf0565b60405180910390f35b3480156102a657600080fd5b506102af6109f6565b6040516102bc9190611c2a565b60405180910390f35b3480156102d157600080fd5b506102ec60048036038101906102e79190611df4565b610a84565b6040516102f99190611d86565b60405180910390f35b34801561030e57600080fd5b50610317610b1b565b005b34801561032557600080fd5b5061032e610b2f565b60405161033b9190611cf0565b60405180910390f35b34801561035057600080fd5b50610359610b59565b6040516103669190611c2a565b60405180910390f35b61038960048036038101906103849190611c82565b610beb565b005b34801561039757600080fd5b506103b260048036038101906103ad9190611f56565b610ca1565b005b3480156103c057600080fd5b506103db60048036038101906103d69190611fcb565b610cbc565b005b6103f760048036038101906103f291906120ac565b610dc7565b005b34801561040557600080fd5b50610420600480360381019061041b9190611c82565b610e19565b60405161042d9190611c2a565b60405180910390f35b34801561044257600080fd5b5061045d6004803603810190610458919061212f565b610e95565b60405161046a9190611b7f565b60405180910390f35b34801561047f57600080fd5b5061049a60048036038101906104959190611df4565b610f29565b005b60006301ffc9a760e01b827bffffffffffffffffffffffffffffffffffffffffffffffffffffffff191614806104f757506380ac58cd60e01b827bffffffffffffffffffffffffffffffffffffffffffffffffffffffff1916145b806105275750635b5e139f60e01b827bffffffffffffffffffffffffffffffffffffffffffffffffffffffff1916145b9050919050565b60606002805461053d9061219e565b80601f01602080910402602001604051908101604052809291908181526020018280546105699061219e565b80156105b65780601f1061058b576101008083540402835291602001916105b6565b820191906000526020600020905b81548152906001019060200180831161059957829003601f168201915b5050505050905090565b60006105cb82610faf565b6105e0576105df63cf4700e460e01b61105b565b5b6006600083815260200190815260200160002060000160009054906101000a900473ffffffffffffffffffffffffffffffffffffffff169050919050565b61062a82826001611065565b5050565b6000610638611194565b600154600054030390507fffffffffffffffffffffffffffffffffffffffffffffffffffffffffffffffff61066b611199565b1461067857600854810190505b90565b6000610686826111c1565b905073ffffffffffffffffffffffffffffffffffffffff8473ffffffffffffffffffffffffffffffffffffffff161693508373ffffffffffffffffffffffffffffffffffffffff168173ffffffffffffffffffffffffffffffffffffffff16146106fb576106fa63a114810060e01b61105b565b5b600080610707846112da565b9150915061071d8187610718611301565b611309565b610748576107328661072d611301565b610e95565b610747576107466359c896be60e01b61105b565b5b5b610755868686600161134d565b801561076057600082555b600560008773ffffffffffffffffffffffffffffffffffffffff1673ffffffffffffffffffffffffffffffffffffffff168152602001908152602001600020600081546001900391905081905550600560008673ffffffffffffffffffffffffffffffffffffffff1673ffffffffffffffffffffffffffffffffffffffff168152602001908152602001600020600081546001019190508190555061082e8561080a888887611353565b7c02000000000000000000000000000000000000000000000000000000001761137b565b600460008681526020019081526020016000208190555060007c02000000000000000000000000000000000000000000000000000000008416036108b457600060018501905060006004600083815260200190815260200160002054036108b25760005481146108b1578360046000838152602001908152602001600020819055505b5b505b600073ffffffffffffffffffffffffffffffffffffffff8673ffffffffffffffffffffffffffffffffffffffff161690508481887fddf252ad1be2c89b69c2b068fc378daa952ba7f163c4a11628f55a4df523b3ef600080a4600081036109265761092563ea553b3460e01b61105b565b5b61093387878760016113a6565b50505050505050565b6109446113ac565b600061094e610b2f565b73ffffffffffffffffffffffffffffffffffffffff164760405161097190612200565b60006040518083038185875af1925050503d80600081146109ae576040519150601f19603f3d011682016040523d82523d6000602084013e6109b3565b606091505b50509050806109c157600080fd5b50565b6109df83838360405180602001604052806000815250610dc7565b505050565b60006109ef826111c1565b9050919050565b600a8054610a039061219e565b80601f0160208091040260200160405190810160405280929190818152602001828054610a2f9061219e565b8015610a7c5780601f10610a5157610100808354040283529160200191610a7c565b820191906000526020600020905b815481529060010190602001808311610a5f57829003601f168201915b505050505081565b60008073ffffffffffffffffffffffffffffffffffffffff168273ffffffffffffffffffffffffffffffffffffffff1603610aca57610ac9638f4eb60460e01b61105b565b5b67ffffffffffffffff600560008473ffffffffffffffffffffffffffffffffffffffff1673ffffffffffffffffffffffffffffffffffffffff16815260200190815260200160002054169050919050565b610b236113ac565b610b2d6000611433565b565b6000600960009054906101000a900473ffffffffffffffffffffffffffffffffffffffff16905090565b606060038054610b689061219e565b80601f0160208091040260200160405190810160405280929190818152602001828054610b949061219e565b8015610be15780601f10610bb657610100808354040283529160200191610be1565b820191906000526020600020905b815481529060010190602001808311610bc457829003601f168201915b5050505050905090565b8064174876e800610bfc9190612244565b341015610c3e576040517f08c379a0000000000000000000000000000000000000000000000000000000008152600401610c35906122d2565b60405180910390fd5b601781610c4961062e565b610c5391906122f2565b1115610c94576040517f08c379a0000000000000000000000000000000000000000000000000000000008152600401610c8b90612372565b60405180910390fd5b610c9e33826114f9565b50565b610ca96113ac565b80600a9081610cb8919061253e565b5050565b8060076000610cc9611301565b73ffffffffffffffffffffffffffffffffffffffff1673ffffffffffffffffffffffffffffffffffffffff16815260200190815260200160002060008473ffffffffffffffffffffffffffffffffffffffff1673ffffffffffffffffffffffffffffffffffffffff16815260200190815260200160002060006101000a81548160ff0219169083151502179055508173ffffffffffffffffffffffffffffffffffffffff16610d76611301565b73ffffffffffffffffffffffffffffffffffffffff167f17307eab39ab6107e8899845ad3d59bd9653f200f220920489ca2b5937696c3183604051610dbb9190611b7f565b60405180910390a35050565b610dd284848461067b565b60008373ffffffffffffffffffffffffffffffffffffffff163b14610e1357610dfd84848484611517565b610e1257610e1163d1a57ed660e01b61105b565b5b5b50505050565b6060610e2482610faf565b610e63576040517f08c379a0000000000000000000000000000000000000000000000000000000008152600401610e5a9061265c565b60405180910390fd5b600a610e6e83611646565b604051602001610e7f929190612787565b6040516020818303038152906040529050919050565b6000600760008473ffffffffffffffffffffffffffffffffffffffff1673ffffffffffffffffffffffffffffffffffffffff16815260200190815260200160002060008373ffffffffffffffffffffffffffffffffffffffff1673ffffffffffffffffffffffffffffffffffffffff16815260200190815260200160002060009054906101000a900460ff16905092915050565b610f316113ac565b600073ffffffffffffffffffffffffffffffffffffffff168173ffffffffffffffffffffffffffffffffffffffff1603610fa35760006040517f1e4fbdf7000000000000000000000000000000000000000000000000000000008152600401610f9a9190611cf0565b60405180910390fd5b610fac81611433565b50565b600081610fba611194565b1161105557610fc7611199565b821115610ff157610fea6004600084815260200190815260200160002054611714565b9050611056565b6000548210156110545760005b600060046000858152602001908152602001600020549150810361102d5782611026906127b6565b9250610ffe565b60007c01000000000000000000000000000000000000000000000000000000008216149150505b5b5b919050565b8060005260046000fd5b6000611070836109e4565b90508180156110b257508073ffffffffffffffffffffffffffffffffffffffff16611099611301565b73ffffffffffffffffffffffffffffffffffffffff1614155b156110de576110c8816110c3611301565b610e95565b6110dd576110dc63cfb3b94260e01b61105b565b5b5b836006600085815260200190815260200160002060000160006101000a81548173ffffffffffffffffffffffffffffffffffffffff021916908373ffffffffffffffffffffffffffffffffffffffff160217905550828473ffffffffffffffffffffffffffffffffffffffff168273ffffffffffffffffffffffffffffffffffffffff167f8c5be1e5ebec7d5bd14f71427d1e84f3dd0314c0f7b2291e5b200ac8c7c3b92560405160405180910390a450505050565b600090565b60007fffffffffffffffffffffffffffffffffffffffffffffffffffffffffffffffff905090565b6000816111cc611194565b116112c457600460008381526020019081526020016000205490506111ef611199565b821115611214576111ff81611714565b6112d55761121363df2d9b4260e01b61105b565b5b6000810361129b5760005482106112365761123563df2d9b4260e01b61105b565b5b5b600460008360019003935083815260200190815260200160002054905060008103156112965760007c0100000000000000000000000000000000000000000000000000000000821603156112d55761129563df2d9b4260e01b61105b565b5b611237565b60007c0100000000000000000000000000000000000000000000000000000000821603156112d5575b6112d463df2d9b4260e01b61105b565b5b919050565b60008060006006600085815260200190815260200160002090508092508254915050915091565b600033905090565b600073ffffffffffffffffffffffffffffffffffffffff8316925073ffffffffffffffffffffffffffffffffffffffff821691508382148383141790509392505050565b50505050565b60008060e883901c905060e861136a868684611755565b62ffffff16901b9150509392505050565b600073ffffffffffffffffffffffffffffffffffffffff83169250814260a01b178317905092915050565b50505050565b6113b461175e565b73ffffffffffffffffffffffffffffffffffffffff166113d2610b2f565b73ffffffffffffffffffffffffffffffffffffffff1614611431576113f561175e565b6040517f118cdaa70000000000000000000000000000000000000000000000000000000081526004016114289190611cf0565b60405180910390fd5b565b6000600960009054906101000a900473ffffffffffffffffffffffffffffffffffffffff16905081600960006101000a81548173ffffffffffffffffffffffffffffffffffffffff021916908373ffffffffffffffffffffffffffffffffffffffff1602179055508173ffffffffffffffffffffffffffffffffffffffff168173ffffffffffffffffffffffffffffffffffffffff167f8be0079c531659141344cd1fd0a4f28419497f9722a3daafe3b4186f6b6457e060405160405180910390a35050565b611513828260405180602001604052806000815250611766565b5050565b60008373ffffffffffffffffffffffffffffffffffffffff1663150b7a0261153d611301565b8786866040518563ffffffff1660e01b815260040161155f9493929190612834565b6020604051808303816000875af192505050801561159b57506040513d601f19601f820116820180604052508101906115989190612895565b60015b6115f3573d80600081146115cb576040519150601f19603f3d011682016040523d82523d6000602084013e6115d0565b606091505b5060008151036115eb576115ea63d1a57ed660e01b61105b565b5b805181602001fd5b63150b7a0260e01b7bffffffffffffffffffffffffffffffffffffffffffffffffffffffff1916817bffffffffffffffffffffffffffffffffffffffffffffffffffffffff191614915050949350505050565b606060006001611655846117e2565b01905060008167ffffffffffffffff81111561167457611673611e2b565b5b6040519080825280601f01601f1916602001820160405280156116a65781602001600182028036833780820191505090505b509050600082602001820190505b600115611709578080600190039150507f3031323334353637383961626364656600000000000000000000000000000000600a86061a8153600a85816116fd576116fc6128c2565b5b049450600085036116b4575b819350505050919050565b60007c0100000000000000000000000000000000000000000000000000000000821673ffffffffffffffffffffffffffffffffffffffff8316119050919050565b60009392505050565b600033905090565b6117708383611935565b60008373ffffffffffffffffffffffffffffffffffffffff163b146117dd57600080549050600083820390505b6117b06000868380600101945086611517565b6117c5576117c463d1a57ed660e01b61105b565b5b81811061179d5781600054146117da57600080fd5b50505b505050565b600080600090507a184f03e93ff9f4daa797ed6e38ed64bf6a1f0100000000000000008310611840577a184f03e93ff9f4daa797ed6e38ed64bf6a1f0100000000000000008381611836576118356128c2565b5b0492506040810190505b6d04ee2d6d415b85acef8100000000831061187d576d04ee2d6d415b85acef81000000008381611873576118726128c2565b5b0492506020810190505b662386f26fc1000083106118ac57662386f26fc1000083816118a2576118a16128c2565b5b0492506010810190505b6305f5e10083106118d5576305f5e10083816118cb576118ca6128c2565b5b0492506008810190505b61271083106118fa5761271083816118f0576118ef6128c2565b5b0492506004810190505b6064831061191d5760648381611913576119126128c2565b5b0492506002810190505b600a831061192c576001810190505b80915050919050565b600080549050600082036119545761195363b562e8dd60e01b61105b565b5b611961600084838561134d565b611981836119726000866000611353565b61197b85611abb565b1761137b565b6004600083815260200190815260200160002081905550600160406001901b178202600560008573ffffffffffffffffffffffffffffffffffffffff1673ffffffffffffffffffffffffffffffffffffffff16815260200190815260200160002060008282540192505081905550600073ffffffffffffffffffffffffffffffffffffffff8473ffffffffffffffffffffffffffffffffffffffff1616905060008103611a3957611a38632e07630060e01b61105b565b5b600083830190506000839050611a4d611199565b600183031115611a6857611a676381647e3a60e01b61105b565b5b5b808360007fddf252ad1be2c89b69c2b068fc378daa952ba7f163c4a11628f55a4df523b3ef600080a4818160010191508103611a695781600081905550505050611ab660008483856113a6565b505050565b60006001821460e11b9050919050565b6000604051905090565b600080fd5b600080fd5b60007fffffffff0000000000000000000000000000000000000000000000000000000082169050919050565b611b1481611adf565b8114611b1f57600080fd5b50565b600081359050611b3181611b0b565b92915050565b600060208284031215611b4d57611b4c611ad5565b5b6000611b5b84828501611b22565b91505092915050565b60008115159050919050565b611b7981611b64565b82525050565b6000602082019050611b946000830184611b70565b92915050565b600081519050919050565b600082825260208201905092915050565b60005b83811015611bd4578082015181840152602081019050611bb9565b60008484015250505050565b6000601f19601f8301169050919050565b6000611bfc82611b9a565b611c068185611ba5565b9350611c16818560208601611bb6565b611c1f81611be0565b840191505092915050565b60006020820190508181036000830152611c448184611bf1565b905092915050565b6000819050919050565b611c5f81611c4c565b8114611c6a57600080fd5b50565b600081359050611c7c81611c56565b92915050565b600060208284031215611c9857611c97611ad5565b5b6000611ca684828501611c6d565b91505092915050565b600073ffffffffffffffffffffffffffffffffffffffff82169050919050565b6000611cda82611caf565b9050919050565b611cea81611ccf565b82525050565b6000602082019050611d056000830184611ce1565b92915050565b611d1481611ccf565b8114611d1f57600080fd5b50565b600081359050611d3181611d0b565b92915050565b60008060408385031215611d4e57611d4d611ad5565b5b6000611d5c85828601611d22565b9250506020611d6d85828601611c6d565b9150509250929050565b611d8081611c4c565b82525050565b6000602082019050611d9b6000830184611d77565b92915050565b600080600060608486031215611dba57611db9611ad5565b5b6000611dc886828701611d22565b9350506020611dd986828701611d22565b9250506040611dea86828701611c6d565b9150509250925092565b600060208284031215611e0a57611e09611ad5565b5b6000611e1884828501611d22565b91505092915050565b600080fd5b600080fd5b7f4e487b7100000000000000000000000000000000000000000000000000000000600052604160045260246000fd5b611e6382611be0565b810181811067ffffffffffffffff82111715611e8257611e81611e2b565b5b80604052505050565b6000611e95611acb565b9050611ea18282611e5a565b919050565b600067ffffffffffffffff821115611ec157611ec0611e2b565b5b611eca82611be0565b9050602081019050919050565b82818337600083830152505050565b6000611ef9611ef484611ea6565b611e8b565b905082815260208101848484011115611f1557611f14611e26565b5b611f20848285611ed7565b509392505050565b600082601f830112611f3d57611f3c611e21565b5b8135611f4d848260208601611ee6565b91505092915050565b600060208284031215611f6c57611f6b611ad5565b5b600082013567ffffffffffffffff811115611f8a57611f89611ada565b5b611f9684828501611f28565b91505092915050565b611fa881611b64565b8114611fb357600080fd5b50565b600081359050611fc581611f9f565b92915050565b60008060408385031215611fe257611fe1611ad5565b5b6000611ff085828601611d22565b925050602061200185828601611fb6565b9150509250929050565b600067ffffffffffffffff82111561202657612025611e2b565b5b61202f82611be0565b9050602081019050919050565b600061204f61204a8461200b565b611e8b565b90508281526020810184848401111561206b5761206a611e26565b5b612076848285611ed7565b509392505050565b600082601f83011261209357612092611e21565b5b81356120a384826020860161203c565b91505092915050565b600080600080608085870312156120c6576120c5611ad5565b5b60006120d487828801611d22565b94505060206120e587828801611d22565b93505060406120f687828801611c6d565b925050606085013567ffffffffffffffff81111561211757612116611ada565b5b6121238782880161207e565b91505092959194509250565b6000806040838503121561214657612145611ad5565b5b600061215485828601611d22565b925050602061216585828601611d22565b9150509250929050565b7f4e487b7100000000000000000000000000000000000000000000000000000000600052602260045260246000fd5b600060028204905060018216806121b657607f821691505b6020821081036121c9576121c861216f565b5b50919050565b600081905092915050565b50565b60006121ea6000836121cf565b91506121f5826121da565b600082019050919050565b600061220b826121dd565b9150819050919050565b7f4e487b7100000000000000000000000000000000000000000000000000000000600052601160045260246000fd5b600061224f82611c4c565b915061225a83611c4c565b925082820261226881611c4c565b9150828204841483151761227f5761227e612215565b5b5092915050565b7f4e6f7420656e6f7567682066756e647300000000000000000000000000000000600082015250565b60006122bc601083611ba5565b91506122c782612286565b602082019050919050565b600060208201905081810360008301526122eb816122af565b9050919050565b60006122fd82611c4c565b915061230883611c4c565b92508282019050808211156123205761231f612215565b5b92915050565b7f4d617820737570706c7920657863656564000000000000000000000000000000600082015250565b600061235c601183611ba5565b915061236782612326565b602082019050919050565b6000602082019050818103600083015261238b8161234f565b9050919050565b60008190508160005260206000209050919050565b60006020601f8301049050919050565b600082821b905092915050565b6000600883026123f47fffffffffffffffffffffffffffffffffffffffffffffffffffffffffffffffff826123b7565b6123fe86836123b7565b95508019841693508086168417925050509392505050565b6000819050919050565b600061243b61243661243184611c4c565b612416565b611c4c565b9050919050565b6000819050919050565b61245583612420565b61246961246182612442565b8484546123c4565b825550505050565b600090565b61247e612471565b61248981848461244c565b505050565b5b818110156124ad576124a2600082612476565b60018101905061248f565b5050565b601f8211156124f2576124c381612392565b6124cc846123a7565b810160208510156124db578190505b6124ef6124e7856123a7565b83018261248e565b50505b505050565b600082821c905092915050565b6000612515600019846008026124f7565b1980831691505092915050565b600061252e8383612504565b9150826002028217905092915050565b61254782611b9a565b67ffffffffffffffff8111156125605761255f611e2b565b5b61256a825461219e565b6125758282856124b1565b600060209050601f8311600181146125a85760008415612596578287015190505b6125a08582612522565b865550612608565b601f1984166125b686612392565b60005b828110156125de578489015182556001820191506020850194506020810190506125b9565b868310156125fb57848901516125f7601f891682612504565b8355505b6001600288020188555050505b505050505050565b7f55524920717565727920666f72206e6f6e206578697374656e7420746f6b656e600082015250565b6000612646602083611ba5565b915061265182612610565b602082019050919050565b6000602082019050818103600083015261267581612639565b9050919050565b600081905092915050565b600081546126948161219e565b61269e818661267c565b945060018216600081146126b957600181146126ce57612701565b60ff1983168652811515820286019350612701565b6126d785612392565b60005b838110156126f9578154818901526001820191506020810190506126da565b838801955050505b50505092915050565b600061271582611b9a565b61271f818561267c565b935061272f818560208601611bb6565b80840191505092915050565b7f2e6a736f6e000000000000000000000000000000000000000000000000000000600082015250565b600061277160058361267c565b915061277c8261273b565b600582019050919050565b60006127938285612687565b915061279f828461270a565b91506127aa82612764565b91508190509392505050565b60006127c182611c4c565b9150600082036127d4576127d3612215565b5b600182039050919050565b600081519050919050565b600082825260208201905092915050565b6000612806826127df565b61281081856127ea565b9350612820818560208601611bb6565b61282981611be0565b840191505092915050565b60006080820190506128496000830187611ce1565b6128566020830186611ce1565b6128636040830185611d77565b818103606083015261287581846127fb565b905095945050505050565b60008151905061288f81611b0b565b92915050565b6000602082840312156128ab576128aa611ad5565b5b60006128b984828501612880565b91505092915050565b7f4e487b7100000000000000000000000000000000000000000000000000000000600052601260045260246000fdfea264697066735822122067be441bd17b2d0fcd32efe3c16e984528d9cc5701bc5662b74d5c247a5ba28964736f6c63430008140033",
  "linkReferences": {},
  "deployedLinkReferences": {}
}